:100000000C94FD150C941A160C941A160C941A16CE
:100010000C941A160C941A160C941A160C941A16A0
:100020000C941A160C941A160C941A160C94A51902
:100030000C941A160C941A160C941A160C941A1680
:100040000C945B190C941A160C941A160C941A162C
:100050000C941A160C941A160C941A160C941A1660
:100060000C941A160C941A16DC1CF41CFE1CE61DCB
:10007000101D561DBD1D041D261EE61DE61DB41EC9
:10008000CB1EE01ECF20632052208B203420F12095
:100090008B20F1204721706D667800110300022B40
:1000A0000000057D16000410040203000100010495
:1000B00005060708090A0B0C0D0E0F0E0F0C0D009C
:1000C00000006608000000FF200020002A080C0144
:1000D00080008608000000FF200020002A080C0194
:1000E0008000A608000000FF5C0F00000C08000064
:1000F000FFFF0218000000FF001300000C080000C2
:10010000FFFF3F001D014E01B9011E023F003502F5
:1001100065029B021E023F00E1024E01B901E102AD
:100120003F00E10265029B02EA023F001D014E0111
:10013000E1021E023F0035026502E1021E023F009D
:100140001D014E01F8021E023F00350265021F0329
:100150001E023F003D036E03D9031E023F003E0412
:100160006E04A4041E023F00EF0420058B051E024E
:100170003F00F005200656061E023F00A10620059E
:100180008B051E023F00FA06200654071E023F00A0
:100190009F072005A9071E023F009F0720061008A1
:1001A0001E02060202030500FF04FF08B00E20181D
:1001B000582020EE4008400A73621285E8C4240AE1
:1001C000D149710447614514A2138B28442706B115
:1001D00089440C62138918C4260AD1894914A213D0
:1001E0008F2844271C2885807C482C22A414900F3B
:1001F0008945849402F221B1889052403E24161120
:10020000E209C887A822423C01F9105544882720FA
:100210001FA28A08F104E4435411219D807C482ADE
:1002200022A413900F4945847402F221A988904EAC
:10023000403E241511E209C887A822423C01F9106A
:1002400055448827201FA28A080105E44342116E05
:10025000A0070AC817122B625C01F9427245BC2B39
:10026000205F48CF9DB9F3E28AD85640BE9058111E
:10027000DB0AC817922BE25E01F9426C45BC2B20C9
:100280005F48AE887105E40B891531AE807C21B1E1
:1002900022DE15902FA456C4BD02F285D48A3857A9
:1002A00040BE905811DB0AC817122B625B01F9425D
:1002B000624500006EC02980240600C9100C33205E
:1002C0000023322000233320302302EEE008400ACE
:1002D0009BA2138F3845271E718A458C22138B18D9
:1002E000452616318A4484E2128908C5250A918878
:1002F0004E1462109B284420C531116E601408A66C
:10030000807C212F1C9D8762F8C5230E110C85B4BB
:10031000288602F21412C216C5308B6028044731B9
:1003200005E4A1101ADA10872AB4610A6BA8E23C2E
:1003300000860676A0803C14E22B626101F9622CF3
:100340000458C4BE02F285F48A00385740BE905E5D
:1003500011FB8A29645740FE5C1185E00AC84331CD
:100360004114922BE25D017928A457049C2B200FA5
:1003700085D88A80600600010000000000000000AF
:100380000500000000000038E014C22831006E2093
:100390000928C489508C024E816280A1ECE424F0CB
:1003A0001159C94D0082A11028C5004701D9C9497A
:1003B000E0221F39093DA00400088321490084C1BF
:1003C00090236048116310064384088329CE2A08CD
:1003D000183020EEA008400A8B22138B18452616F1
:1003E000314A71044761482C62149158C428121193
:1003F0008A472422148F48442816318A4C2C6214D0
:100400009558C4281C4085807C082D220415900F27
:10041000A14584A002F221B4881054403E841611F4
:10042000120AC887B422424201F990564448282053
:100430001FD28A080905E4435A1121A0807C082BA9
:10044000220414900F6145848002F221AC88105080
:10045000403E841511120AC887B422424201F99025
:1004600056444828201FD28A081905E44348116ED3
:1004700000080AC817422BE25D01F9427845EC2BCF
:10048000205F08509FBCF3EE8A385740BE105A11C7
:10049000E70AC817C22B626001F9427245EC2B20B3
:1004A0005F08AF887705E40BA115F1AE807C21B41D
:1004B00022F615902F0457C4C002F285E08A98579F
:1004C00040BE105A11E70AC817422BE25C01F942FC
:1004D00068450000EE4009400AB362149568C528DB
:1004E0002AD18A48A4E2139148C52722918A479CC1
:1004F000A2138F38452716F188512C2211A158C418
:1005000021C5F1116EC01408A6807C2132349D876C
:100510006258C62626110C85C0288602F214424273
:1005200018C5F08B602864473105E4A1901BE67084
:10053000872DCC210B71D8E23C0086067CA0803C44
:1005400014122CE26201F9622C6458C4C102F285D3
:10055000008B00985740BE106011078B29C457408C
:100560007E5E1185EC0AC843314114C22B625F01E3
:100570007928045804CC2B200F85E48A80608652A9
:10058000A25510A002EE0009400AA3E2139148C54B
:100590002722914A710447614B4422159788442AC7
:1005A0001E718A4A3CE2149578C42922918A4F44EC
:1005B00022159B88442A1C5885807CC82D226415EE
:1005C000900FB94584AC02F221B7889055403EE4C3
:1005D0001611420AC887C022424801F9105844083F
:1005E00029201F028B082105E443601121A3807C90
:1005F000C82B226414900F7945848C02F221AF88B5
:100600009051403EE41511420AC887C02242480179
:10061000F91058440829201F028B083105E4434E85
:10062000116E60080AC817722B625F01F9427E459D
:100630001C2C205FC8D0A0BFF3FA8A985740BE9008
:100640005B11F30AC817F22BE26101F94278451CED
:100650002C205FC8AF887D05E40BB915B1AF807C55
:1006600021B7220E16902F6457C4C302F285EC8A7C
:10067000F85740BE905B11F30AC817722B625E01F7
:10068000F9426E450000EEA009400ACB22159B9866
:10069000452A36318B4BBCA214977845292EF18A16
:1006A0004AB462149568C5282251895444E211A7BE
:1006B000884423C5B1126E201508A6807C21354CD4
:1006C0009D8762B8C6293E110C85CC288602F2149B
:1006D00072C219C5B08C6028C4473105E4A1101D51
:1006E000F2D08730E4E10B7708E33C00860682A075
:1006F000803C14422C626401F9622CC458C4C402C8
:10070000F2850C8B00F85740BE906111138B2924A1
:100710005840FE5F1185F80AC843314114F22BE2BC
:1007200060017928645804FC2B200F85F08A8060D2
:100730008652A85510A0026E60184A78DAB7CA0C23
:100740002870E853A5439F65644490052A1DFA5418
:10075000E9D067893C910EE58974284F6491411670
:100760003894A7D2A13C9125EE3C2A74E751A13BD5
:100770008F450659A0D09D4985EE3C96C813E95097
:100780009E4887F2441619648143792A1DCA1309C9
:100790006E20184A68DAB7C80C28306853A4419B09
:1007A0006564449005220DDAF429D260893F971AD6
:1007B000FDB9D4E8CF6591411668F4E752A33F979D
:1007C00025FA545AD4A7D2A23E95450659A051A95C
:1007D0003C91FA5496C81359669825EE3C961966D2
:1007E000813C910EE58974284F24860682A0803CC6
:1007F00014422C626401F9622CC458C4C402F2850C
:100800000C8B00F85740BE906111138B292458407F
:10081000FE5F1185F80AC843314114F22BE26001F2
:100820007928645804FC2B200F85F08A806086525A
:10083000A8A410A002490000000000000000006E03
:1008400061088EB9C07CA1B722F715982FF457E440
:10085000C102F3850E0DFA3BAFAFC87905E60BBDBB
:100860001539AFC07CA1BF221F16982F9457E4C141
:1008700002F385FE8ADC5760BED05B91FB0ACC1781
:100880007A2BF26081F94277453E2C305FE8AEC8A2
:100890007F05E60BBD1539AFC07CA1B722E71598DF
:1008A0002FF45664802A0EE198036C30080ACC07B6
:1008B00068A1C4224716982FD6428D454E2C305F32
:1008C000E8B0C800D5427F05E61F165928B1D88385
:1008D00005E60BFD15B9AFC07C80161B64A1BF22D5
:1008E0000F16980FD04287450668A1BF02F3015A40
:1008F00028AFC8000DB6C8002D94FA0300007F7F12
:100900007F7F7F7F7F7F7F7F7F7F7F7F7F7F7F7FF7
:100910007F7F7F7F7F7F7F7F0000000000007F7FE1
:100920007F7F7F7F7F7F7F7F7F7F7F7F7F7F7F7FD7
:100930007F7F7F7F7F7F7F7F00000000000A1E286F
:100940002E280F05FAF5EBEBE1D1C2B8B3AEA8B390
:10095000BDD1DCE6E1F5FA0005050005000505144A
:10096000282E382E2E2E2814FAEBD7D7D1D1DCEB37
:10097000050A1E1E28333D3D4233281405050F1974
:100980002828283328282828190F00F0EBE6E1F062
:10099000F00000141E2819140500F5E1D7D7E1F581
:1009A00000000A0F1E191405F0E1D1DCE1F5000585
:1009B0001923232E231E23231400F0E1EBFA0F0A40
:1009C0001414191E1E190500FA00F5FAF5E6EBF0ED
:1009D000EBEBEBF0F5000000000A0F14140A000521
:1009E000050A0500FAF0E1D7C7D7D7E1E6E1DCD781
:1009F000D7D7EB00192E382E1E1E2328332E282879
:100A0000140F00FAEBDCD1C2BDBDC7E600141E33E3
:100A1000383D38332E33231E050000000000FAE66F
:100A2000F0F5000000000000FAF5EBEBF0F0F50047
:100A300005050A00F5E6E6EBE6F0FA050F190F0AE0
:100A4000FAE1D1BDB3B3C2D7F5FA050A0F0F05FA23
:100A5000E1D1C2BDB8D1E1F5050A050A0A0F192393
:100A600033231E14000000FAFAF5E6E6E1E1DCE1CA
:100A7000E6E6F5000A0F0000FAF0E1E6EBF0000010
:100A80000005000000FA000F1419140500F5E1DC60
:100A9000DCEBFA0A14191E0F00F0F0EBF5F5FAFA88
:100AA000F5000A1414050A000000FAFA0000FAFA28
:100AB000F5F5FA05051428333D38383D383323055C
:100AC000FAE6CCBDB3B3B3C2D1F00F28424C5751B4
:100AD000513D28140500000000050F05FAE6DCEB87
:100AE000001E3D576670757575706B6B666661614B
:100AF00061616666666666666666666666666666A0
:100B00006666664719F0C7A88F858080858A9494A9
:100B1000999E9E9E9E9E9E99999999999999999927
:100B20009999999999999999999999999999999935
:100B30009999999999999999999999999999999925
:100B40009999999999999999999999999999999915
:100B5000999999999999999999999999B8E60F3884
:100B600057707A7F7F7A756B6B66616161616161D5
:100B70006666666666666666666666666666666615
:100B80006666666666666666666666666666666605
:100B900066666666666666666666666666666666F5
:100BA00066666666666666666666666666666666E5
:100BB00066666666664719F0C7A88F858080858A55
:100BC0009494999E9E9E9E9E9E9999999999999981
:100BD0009999999999999999999999999999999985
:100BE0009999999999999999999999999999999975
:100BF0009999999999999999999999999999999965
:100C0000999999999999999999999999999999B835
:100C1000E60F3857707A7F7F7A756B6B666161611A
:100C20006161616666666666666666666666666673
:100C30006666666666666666666666666666666654
:100C40006666666666666666666666666666666644
:100C50006666666666666666666666666666666634
:100C600066666666666666664719F0C7A88F858001
:100C700080858A9494999E9E9E9E9E9E999999990C
:100C800099999999999999999999999999999999D4
:100C900099999999999999999999999999999999C4
:100CA00099999999999999999999999999999999B4
:100CB0009999999999999999999999999999999E9F
:100CC0009E9E9E9E9E9E9E9E99B8E60F38576B7A7A
:100CD0007A7A75706B66666161616161616161619B
:100CE00061616161616161616161616161616161F4
:100CF00061616161616161616161616161616161E4
:100D000061616161616161616161616161616161D3
:100D100061616161616161616161616161615C5CCD
:100D20005C5C5C5C5C5C5C61616161616161615CDB
:100D30005C5C5C4219F0CCAE998F8A8A8F94999E44
:100D4000A3A3A3A3A3A3A3A3A3A3A3A3A3A3A3A373
:100D5000A3A3A3A3A3A3A3A3A3A3A3A3A3A3A3A363
:100D6000A3A3A3A3A3A3A3A3A3A3A3A3A3A3A3A353
:100D7000A3A3A3A8A8A8A8A8A8A8A8A8A3A3A3A316
:100D8000A3A3A3A3A3A8A8A8A8A8A8A8A8A8A8A8FC
:100D9000A8A8A8A8A8A8A8A8A8A8A8A8A8C2EB0F0F
:100DA000334C616B6B6B66615C5C575751515151B1
:100DB00057575757575757575757575757575757C3
:100DC00057575757575757575751515151515151DD
:100DD0005151515151515151515151515151515103
:100DE00051515151515151515151515151515151F3
:100DF00051515151515151515151515151515151E3
:100E0000515151515151513814F5D1B8A89E9E9E5F
:100E10009EA3A8AEB3B3B3B3B3B3B3B3B3B3B3B3D7
:100E2000B3B3B3B3B3B3B3B3B3B3B3B3B3B3B3B392
:100E3000B3B3B3B3B3B3B3B3B3B3B3B3B3B3B3B87D
:100E4000B8B8B8B8B8B8B8B8B3B3B3B3B3B3B3B34A
:100E5000B8B8B8B8B8B8B8B8B8B8B8B8B8B8B8B812
:100E6000B8B8B8B8B8B8B8B8B8B8B8B8B8B8B8B802
:100E7000B8B8B8B8B8B8B8CCF00A283D4C575757EE
:100E8000514C4C4747424242424242424242424215
:100E90004242424242424242424242424242424232
:100EA0004242424242424242424242424242424222
:100EB0004242424242424242424242424242424212
:100EC000424242423D3D3D3D3D3D3D3D3D4242422F
:100ED00042423D3D3D3D3D3D3D3D3D3D3D3D3D3D38
:100EE0003D3D3D3D3D3D3D3D3D3D3D3D3D3D3D3D32
:100EF0003D3D3D3D3D3D280FF5DCCCBDB8B3B3B81D
:100F0000BDBDC2C2C2C7C7C7C7C2C2C2C2C2C2C2B7
:100F1000C2C2C7C7C7C7C7C7C7C7C2C2C2C2C2C289
:100F2000C2C2C2C7C7C7C7C7C7C7C7C7C7C7C7C760
:100F3000C7C7C7C7C7C7C7C7C7C7C7C7C7C7C7C741
:100F4000C7C7C7C7C7C7C7C7C7C7C7C7C7C7C7C731
:100F5000C7C7C7C7C7C7C7C7C7C7C7C7C7C7C7C721
:100F6000C7C7C7C7C7C7C7C7C7C7C7C7C7C7C7CC0C
:100F7000CCCCCCCCDCF0051E2E3D424242423D386A
:100F80003838333333333333333333333333333327
:100F90003333333333333333333333333333333321
:100FA0003333333333333333333333333333333311
:100FB0003333333333333333333333333333333301
:100FC000333333332E2E2E2E2E2E2E2E2E3333331E
:100FD00033332E2E2E2E2E2E2E2E2E2E2E2E2E2E27
:100FE0002E2E2E2E2E2E2E2E2E2E2E2E2E2E2E2E21
:100FF0002E2E1E0AFAE6D7CCC7C7C7C7CCCCD1D194
:10100000D1D7D7D7D1D1D1D1D1D1D1D1D1D1D1D1BE
:10101000D7D7D7D7D7D7D7D7D7D1D1D1D1D1D1D18A
:10102000D1D1D7D7D7D7D7D7D7D7D7D7D7D7D7D75C
:10103000D7D7D7D7D7D7D7D7D7D7D7D7D7D7D7D740
:10104000D7D7D7D7D7D7D7D7D7D7D7D7D7D7D7D730
:10105000D7D7D7D7D7D7D7D7D7D7D7D7D7D7D7D720
:10106000D7D7D7D7D7D7D7D7D7D7D7D7D7D7D7D710
:10107000E1F50514232E3333332E2E282828282873
:1010800023282828282828282828282828282828E5
:1010900028282828282828282828282828282823D5
:1010A00023232323232323232828282828282828E8
:1010B00023232323232323232328282828282828DD
:1010C00023232323232323232323232323232323F0
:1010D00023232323232323232323232323232323E0
:1010E00023232323232323232323232323232319DA
:1010F0000AFAEBE1D7D1D1D1D7D7D7DCDCDCDCE100
:10110000DCDCDCDCDCDCDCDCDCDCDCDCDCDCDCDC1F
:10111000DCE1E1E1E1E1E1E1E1E1DCDCDCDCDCDCE2
:10112000DCDCE1E1E1E1E1E1E1E1E1DCDCDCDCDCD2
:10113000DCDCE1E1E1E1E1E1E1E1E1E1E1E1E1E1A9
:10114000E1E1E1E1E1E1E1E1E1E1E1E1E1E1E1E18F
:10115000E1E1E1E1E1E1E1E1E1E1E1E1E1E1E1E17F
:10116000E1E1E1E1E1E1E1E1E1E1E1E1E1EBFA0528
:101170000F19232328282323231E1E1E1E1E1E1E76
:101180001E1E1E1E1E1E1E1E1E1E1E1E1E1E1E1E7F
:101190001E1E1E1E1E1E1E1E1E1E1E1E1E1E1E1E6F
:1011A0001E1E1E1E1E1E1E1E191919191919191987
:1011B000191E1E1E1E1E1919191919191919191986
:1011C000191919191919191919191919191919198F
:1011D000191919191919191919191919191919197F
:1011E000191919191919191919191919140500F0CA
:1011F000EBE6E1E1E1E1E1E6E6E6E6E6E6E6E6E6A3
:10120000E6E6E6E6E6E6E6E6EBEBEBEBEBEBEBEB56
:10121000E6E6E6E6E6E6E6E6E6EBEBEBEBEBEBEB4B
:10122000EBEBE6E6E6E6E6E6EBEBEBEBEBEBEBEB2C
:10123000EBEBEBEBEBEBEBEBEBEBEBEBEBEBEBEBFE
:10124000EBEBEBEBEBEBEBEBEBEBEBEBEBEBEBEBEE
:10125000EBEBEBEBEBEBEBEBEBEBEBEBEBEBEBEBDE
:10126000EBEBEBEBEBEBEBEBEBEBF0FA000A14192F
:101270001919191919191414141414141414141410
:10128000141414141414141414141414141414141E
:10129000141414141414141414141414141414140E
:1012A00014141414141414141414141414141414FE
:1012B00014141414141414141414141414141414EE
:1012C00014141414141414141414141414141414DE
:1012D00014141414141414141414141414141414CE
:1012E00014141414141414140A0500F5F0EBEBE6AE
:1012F000EBEBEBEBEBEBF0F0F0F0F0F0F0F0EBEB16
:10130000EBEBEBEBEBEBEBF0F0F0F0F0F0F0F0F000
:10131000EBEBEBEBEBEBEBEBEBF0F0F0F0F0F0F0FA
:10132000F0EBEBEBEBEBEBEBEBEBF0F0F0F0F0F0EA
:10133000EBEBF0F0F0F0F0F0F0F0F0F0F0F0F0F0B7
:10134000F0F0F0F0F0F0F0F0F0F0F0F0F0F0F0F09D
:10135000F0F0F0F0F0F0F0F0F0F0F0F0F0F0F0F08D
:10136000F0F0F0F0F0F0F500000A0F0F1414141470
:101370000F0F0F0F0F0F0F0F0F0F0F0F0F0F0F0F7D
:101380000F0F0F0F0F0F0F0F0F0F0F0F0F0F0F0F6D
:101390000F0F0F0F0F0F0F0F0F0F0F0F0F0F0F0F5D
:1013A0000F0F0F0F0F0F0F0F0F0F0F0F0F0F0F0F4D
:1013B0000F0F0F0F0F0F0F0F0F0F0F0F0F0F0F0F3D
:1013C0000F0F0F0F0F0F0F0F0F0F0F0F0F0F0F0A32
:1013D0000A0A0A0A0A0A0A0A0F0F0F0F0F0F0F0F45
:1013E0000A0A0A0A0A0A0000FAF5F0F0F0F0F0F032
:1013F000F0F0F5F5F5F5F5F5F5F5F5F5F5F5F5F5A7
:10140000F5F5F5F5F5F5F5F5F5F5F5F5F5F5F5F58C
:10141000F5F5F5F5F5F5F5F5F5F5F5F5F5F5F5F57C
:10142000F5F5F5F5F5F5F5F5F5F5F5F5F5F5F5F56C
:10143000F5F5F5F5F5F5F5F5F5F5F5F5F5F5F5F55C
:10144000F5F5F5F5F5F5F5F5F5F5F5F5F5F5F5F54C
:10145000F5F5F5F5F5F5F5F5F5F5F5F5F5F5F5F53C
:10146000F5F5F5FA0000050A0F0F0F0F0F0F0A0A26
:101470000A0A0A0A0A0A0A0A0A0A0A0A0A0A0A0ACC
:101480000A0A0A0A0A0A0A0A0A0A0A0A0A0A0A0ABC
:101490000A0A0A0A0A0A0A0A0A0A0A0A0A0A0A0AAC
:1014A0000A0A0A0A0A0A0A0A0A0A0A0A0A0A0A0A9C
:1014B0000A0A0A0A0A0A0A0A0A0A0A0A0A0A0A0A8C
:1014C0000A0A0A0A0A0A0A0A0A0A0A0A0A0A0A0A7C
:1014D0000A0A0A0A0A0A0A0A0A0A0A0A0A0A0A0A6C
:1014E0000A0A050000FAFAF5F5F5F5F5F5F5F5F552
:1014F000F5F5F5F5F5F5F5F5F5F5F5F5F5F5F5F59C
:10150000F5F5F5F5F5F5F5F5F5F5F5F5F5F5F5F58B
:10151000F5F5F5F5F5F5F5F5F5F5F5F5F5F5F5F57B
:10152000F5F5F5F5F5F5F5F5F5F5F5F5F5F5F5F56B
:10153000F5F5F5F5F5F5F5F5F5F5F5F5F5F5F5F55B
:10154000F5F5F5F5F5F5F5F5F5F5F5F5F5F5F5F54B
:10155000F5F5F5F5F5F5F5F5F5F5F5F5F5F5F5F53B
:10156000FA000005050A0A0A0A0A0A0A0A0A0A050E
:1015700005050505050505050A0A0A0A0A0A0A0AF3
:101580000A0505050505050505050A0A0A0A0A0AE8
:101590000A0A0505050505050505050A0A0A0A0AD8
:1015A0000A0A0A0A050505050505050505050505D7
:1015B00005050505050505050505050505050505DB
:1015C00005050505050505050505050505050505CB
:1015D00005050505050505050505050505050505BB
:1015E0000000FAFAFAF5F5F5F5FAFAFAFAFAFAFA63
:1015F000FAFAFAFAFAFAFAFAFAFAFAFAFAFAFAFA4B
:10160000FAFAFAFAFAFAFAFAFAFAFAFAFAFAFAFA3A
:10161000FAFAFAFAFAFAFAFAFAFAFAFAFAFAFAFA2A
:10162000FAFAFAFAFAFAFAFAFAFAFAFAFAFAFAFA1A
:10163000FAFAFAFAFAFAFAFAFAFAFAFAFAFAFAFA0A
:10164000FAFAFAFAFAFAFAFAFAFAFAFAFAFAFAFAFA
:10165000FAFAFAFAFAFAFAFAFAFAFAFAFAFA0000DE
:10166000000505050505050505050505050505052F
:10167000050505050505050505050505050505051A
:10168000050505050505050505050505050505050A
:1016900005050505050505050505050505050505FA
:1016A00005050505050505050505050505050505EA
:1016B00005050505050505050505050505050505DA
:1016C00005050505050505050505050505050505CA
:1016D000050505050505050505050505000000FAD4
:1016E000FAFAFAFAFAFAFAFAFAFAFAFAFAFAFAFA5A
:1016F000FAFAFAFAFAFAFAFAFAFAFAFAFAFAFAFA4A
:10170000FAFAFAFAFAFAFAFAFAFAFAFAFAFAFAFA39
:10171000FAFAFAFAFAFAFAFAFAFAFAFAFAFAFAFA29
:10172000FAFAFAFAFAFAFAFAFAFAFAFAFAFAFAFA19
:10173000FAFAFAFAFAFAFAFAFAFAFAFAFAFAFAFA09
:10174000FAFAFAFAFAFAFAFAFAFAFAFAFAFAFAFAF9
:10175000FAFAFAFAFAFAFAFAFA00000000050505B0
:101760000505050505050505050505050505050529
:101770000500000000000000000005050505050546
:101780000505050000000000000000050505050531
:101790000505050500000000000000000005050526
:1017A0000505050505050500000000000000000016
:1017B0000000000000000000000000000000000029
:1017C0000000000000000000000000000000000019
:1017D00000000000000000000000000000FAFAFA1B
:1017E000FAFAFAFAFAFA0000000000000000FAFA29
:1017F000FAFAFAFAFAFAFA00000000000000000013
:1018000000000000000000000000000000000000D8
:1018100000000000000000000000000000000000C8
:1018200000000000000000000000000000000000B8
:1018300000000000000000000000000000000000A8
:101840000000000000000000000000000000000098
:10185000000000000000000000000005050505056F
:101860000505050500000000000000000505050550
:101870000505050505000000000000000000050545
:101880000505050505050500000000000000000035
:1018900000000000000000000000EBDCCCD1D7DC31
:1018A000EBF5F5EBE6DCE6E1F5F50000F5F0F50526
:1018B000141E140A000005050A140A0500F5F0EBD1
:1018C000E1E6E6E6EBEBE6F5050F0A0500000A0A9D
:1018D0000A0F0AFAF0EBDCE1DCDCE1F50014192375
:1018E00023230FFAE1C7B8A8AEB3D1DCF5000A058F
:1018F0000F0A050F0A0F0000F0FA000F050A00009A
:10190000F5EBDCD1D1DCFA05140F00F5F5EBF0F0C6
:10191000E6F0F0FAFA00F5E1D7CCC2CCD7DCEBF573
:101920000005192838423D280F0AFAFAF5F0F000B0
:101930000000F5EBDCDCDCD7E1EBEBF5FA05192375
:10194000281405F0E6DCD1CCC7DCE6F0FA00000A8A
:101950000A00050A0A0005050F1E33383D33332EF1
:10196000281E0500FA00F5F5F5E6EBF0EBF0F0F5D2
:10197000000A1E1E1E2828231E0F0505050505004A
:1019800000F5EBE6EBFAFA00000000F5F0E6F005F2
:1019900019282E230F0A05050F0F141E140F0A0A0B
:1019A0000A00F0E1CCC7C2D1D7F0000A191E141901
:1019B000232E333828190AF5F5F0FAF50005050A43
:1019C00005000000FAF5EBF0F0F0FA0A1923140A0A
:1019D00000FA0000FA0000050F1E140F00F0F5F5E4
:1019E000FA00FA05191E231905FAEBDCCCC2C7D19F
:1019F000E60019333D47332814140000F5EBEBFAE9
:101A0000F5FAF0E6D1CCC2D1D1EBF0FAF5EBEBEB85
:101A1000F5F5F0E6EBEBE6EBEBE6F0EBF5FAFA00CA
:101A200000000A19282E382823140F050005141E5B
:101A30003338331905F0E6D7D7D1E1E6F5FA0014CB
:101A40000F0A0A00FAF0EBDCE1E6F000FAFA051EF4
:101A5000384C616B707070706B6B6666666161614B
:101A60006666666666666666666666666666666616
:101A700066666666664719F0C7A88F858080858A86
:101A80009494999E9E9E9E9E9E99999999999999B2
:101A900099999999999999999999999999999999B6
:101AA00099999999B8E60F3857707A7F7F7A756B54
:101AB0006B666161616161616666666666666666DF
:101AC00066666666666666666666666666666666B6
:101AD000666666664719F0C7A88F858080858A94F8
:101AE00094999E9E9E9E9E9E99999999999999994D
:101AF0009999999999999999999999999999999956
:101B0000999999B8E60F3857707A7F7F7A756B6B21
:101B10006661616161616166666666666666666683
:101B20006666666666666666666666666666666655
:101B300066664719F0C7A88F858080858A94949936
:101B40009E9E9E9E9E9E99999999999999999999E7
:101B500099999999999999999999999999999999F5
:101B600099B8E60F3857707A7F7F7A756B6B66612C
:101B7000616161616166666666666666666666661E
:101B800066666666666666666666666666666666F5
:101B9000664719F0C7A88F858080858A9494999E9E
:101BA0009E9E9E9E9E99999999999999999999998C
:101BB0009999999999999999999999999999999995
:101BC000B8E60F3857707A7F7F7A756B6B66616104
:101BD00061616161666666666666666666666666B9
:101BE00066666666666666666666666666666647B4
:101BF00019F0C7A88F858080858A9494999E9E9EAF
:101C00009E9E9E9999999999999999999999999935
:101C10009999999999999999999999999999999934
:101C200099B8E60F3857707A7F7F7A756B6B66616B
:101C3000616161616166666666666666666666665D
:101C40006666666666666666666666666666666634
:101C50006666666666664719F0C7A88F85808085C8
:101C60008A9494999E9E9E9E9E9E999999999999DF
:101C700099999999999999999999999999999999D4
:101C80009999999999999999999999B8E60F385785
:101C9000707A7F7F7A756B6B666161616161616685
:101CA00066666666666666666666666666666666D4
:101CB00066666666666666666666666666666666C4
:101CC0004719F0C7A88F858080858A9494999E9E35
:101CD0009E9E9E9E99999999999999999999999960
:101CE0009999999999999999999999999999999964
:101CF0009999999999B8E60F3857707A7F7F7A75D4
:101D00006B6B666161616161616666666666666687
:101D10006666666666666666666666666666666663
:101D2000666666666666666666664719F0C7A88F69
:101D3000858080858A9494999E9E9E9E9E9E999968
:101D40009999999999999999999999999999999903
:101D5000999999999999999999999999999999B8D4
:101D6000E60F3857707A7F7F7A756B6B66616161B9
:101D70006161616666666666666666666666666612
:101D800066666666666666666666666666666666F3
:101D9000666666664719F0C7A88F858080858A9435
:101DA00094999E9E9E9E9E9E99999999999999998A
:101DB0009999999999999999999999999999999993
:101DC0009EBDD7FA14283D38332E1E1400F0E1CC06
:101DD000D7DCEB0000FAF0F0FA0A14232828281EBA
:101DE0000F0A0F0F0F0000FA000000FAEBE6F000F8
:101DF0000A0A05000A192E2E382E231E0F00F5F0B0
:101E0000E1EBF0F5050A0F190AFAE6DCDCE1E6E1A0
:101E1000D7D1D1D1DCF000050F0500F0FAF0FA00BF
:101E2000050F191400FAF0E6E6DCD1D1D1E1F5FA9C
:101E3000FA000000FAFA00000000F0FA00050F199D
:101E40001E1E1E14050A141E23190F0A0F0F05F576
:101E5000E1CCC2BDC7CCD7E1F00A0F1E1E232E383D
:101E60003838230FF5F5F0FA05141919231E1E1E34
:101E700023140AFAE1D1C2C2C7C7C7C7CCCCDCE180
:101E8000F0F0FAF5EBE1E1E1F000192E333D2E23FD
:101E9000140F00FAF0E1E6E6EBEBE1DCCCCCC7D7BF
:101EA000DCF0F50000FAFA000F2333383D2E281439
:101EB0000A0000F0F0EBE1E1E6E1EBE1E6DCE6E16F
:101EC000F0EBF0F0E6DCD1D7E6F50005000000000D
:101ED000F5F0E6E6E1DCE6E6F0F5F0EBEB00051404
:101EE000141E2323190A00FAFA000F1923232323AF
:101EF0001905000000000000000000F5EBE6EB0013
:101F00000A140F00FAEBEBF0000F1E2E2323191416
:101F10000F00FAEBEBE1DCDCEBFAFA00000A142329
:101F2000282E2E332E2328231E231E1E28333D3D0C
:101F3000422E23140F0A05FAFAF5F5F5F0FA00051A
:101F400014141E14140F1414190F0500000F23335A
:101F50003D3D3333332E281E0A00FAEBEBEBF50040
:101F60000000F500000A1423232E231905FAEBEBD9
:101F7000FAF50000050A05FAF0F5051E3847576125
:101F8000666666615C5C57575757575757575757A0
:101F900057573D14F0CCB39E949494999E9EA3A859
:101FA000A8A8AEAEA8A8A8A8A8A8A8A8A8A8A8A8A5
:101FB000A8A8A8A8A8A8A8A8A8A8A8A8A8A8A8A8A1
:101FC000A8A8A8A8A8A8A8C2EB0F334C5C666B6BA6
:101FD00066615C57575151515151515151515757A9
:101FE00057575757575757515151515151515151B7
:101FF0005151515151515151515151513814F0D108
:10200000B8A39999999E9EA3A8AEAEAEAEAEAEAE61
:10201000AEAEAEAEAEAEAEAEAEAEAEAEAEAEAEAEE0
:10202000AEAEAEAEAEAEAEAEAEAEAEAEAEAEAEAED0
:10203000AEC7EB0A2E4757616666615C5751514C3B
:102040004C4C4C4C51515151515151515151515194
:102050005151515151515151514C4C4C4C4C4C4C93
:102060004C4C515151513814F5D1BDA89E9E9EA3A0
:10207000A8A8AEB3B3B3B3B3B3B3B3B3B3B3B3B34B
:10208000B3B3B3B3B3B3B3B3B3B3B3B3B3B3B3B320
:10209000B3B3B3B3B3B3B3B3B3B3B3CCEB0A2E425E
:1020A000515C615C5C57514C4C47474747474C4C2F
:1020B0004C4C4C4C4C4C4C4C4C4C4C4C4C4C4C4765
:1020C00047474747474747474C4C4C4C4C4C4C4C78
:1020D0003314F5D7BDAEA8A3A3A8AEB3B3B8B8B8B0
:1020E000B8B8B8B8B8B8B8B8B8B8B8B8B8B8B8B870
:1020F000B8B8B8B8B8B8B8B8B8B8B8B8B8B8B8B860
:10210000B8B8B8B8B8CCF00A283D4C575C5757510E
:102110004C47474242424242474747474747474763
:10212000474747474242424242424242424747476C
:102130004242331E0F00FAEBE1E1E6F000050F1E0C
:10214000232E23231919191E140F0A0A0A140F0F1C
:102150000500000A0F141414140A00F0E6E6F0EB70
:10216000EBE6E6E1F0F0FA00050F14140A0A0000AD
:1021700000050A0F0500F5F5F0FAF5FA00FA00057A
:10218000050A0F0A0500FAFAF5FA00FAFAFAF5F567
:10219000FAFAF0EBE6E6F000050F1E23282E2E28B3
:1021A0001900F5E6E6EBEBE6EBE6EBF5F5FA0005F4
:1021B000050500FAF0EBF0F5000A140F14140F05F2
:1021C000FAEBE1D7D1D1DCE6F00000FAF0EBE6E67D
:1021D000F5FA00FAFAF5F500000000FAFAFAFAFA50
:1021E000F0EBE6F0F0F5F5F5F5FA05050F0F141E26
:1021F00028282E2323191E19140F0A05000505058A
:102200000A140F0A0500000000050000F5F0E6E6DC
:10221000E6E1E1E6EBE6EBEBF5FA050F1419140A3B
:102220000000FAFA000000000A141E1E140500F552
:10223000FAFAFAF5F0EBE6E1E6EBF50000FAF0EB7E
:10224000EBF0FA00000500FAFAF5F0F0F0EBF0F030
:10225000F5F5F0E6E6E1E6E6EBEBF5000000000060
:102260000000050A14140F0A05050A0F0A0F0F0FC4
:102270000A00F5EBE1E6EBF50000000000050A0AB4
:102280000A0A050500F5EBE1E6EBEBF0F0F5F0F5F9
:10229000FA0000000000050500050F14190F0F05D6
:1022A00000FAF0EBE6E6EBF0FAFA00050A0F140F7D
:1022B000140F0F0A0A0A0A14141E191E1E1E1919D9
:1022C00019140F05050A0F0F050A050A0F19191928
:1022D000140F0A0A0A0F141923232323190F05FACE
:1022E000F5F0EBEBF0FAFA000000050A0A0F0A0A13
:1022F00005000005050A0A0F191E232828231405C6
:1023000000F5FAFA00FAFAF5FA000A050A0A0A0ACA
:1023100005000000000A050500FAF0F5F0F5F5FAF1
:10232000000A14141414140F0500F0E6E1DCDCE1DB
:10233000F0000A0F0F140F0A0A00FAF0E6E1E6EBCC
:10234000F5000000F5FAF500FAFAF5F5EBEBEBEB2A
:10235000EBF0F5F0FAFA00050500FAFAF5F5F0EB06
:10236000EBF5FA000000000005000000F5F0EBE6D8
:10237000F0F0FA00050A0F0F050505050505050033
:1023800000FAF5F5F500000000000000000000F57F
:10239000F5F5FAFAFAFA00050A0A05050500FAF554
:1023A000FAF5F5FA0005141E1E231E1E1E1E1E1928
:1023B000191919140A0A050000FAF5FAFA000A14A4
:1023C000191E23231E190A0000FAFAF5F0EBE6E1C4
:1023D000E6E6F0F500050A0A050500000000000029
:1023E00000FAFA00000000F5F5F0F5FA000005002B
:1023F000FAF5F0F0F5F5FAF5FAFAFAFA000000FA53
:10240000F5F0F0F5FA0000050F0F140F0A00FAF5C9
:10241000EBF0F0F500000A0A0F0A0A05050A0A05A2
:10242000000000050A0A0A05000000FAFAFAF5F5AC
:10243000F5F0FAFA0000050000000000000000FAC4
:10244000F5F0F0F5F5FA0000000000F5FAFA0000EA
:102450000A0505050A0F0F0500F5EBEBE6E6E6E6D3
:10246000E6E6EBF0FA00050F0F0F05000000000A8A
:102470000F140F0F0F0F0A00F5F0F0F5F5F0F0F064
:10248000F5F5F5F5F5FA000A050A05000000050A5C
:102490000F0F0F14191919140F0500FAF5F0F5FABA
:1024A000000000FAF5EBE6DCD7D7D1D1E1F5051451
:1024B000232E3333332E2E28282828282328282873
:1024C000282828282828282828282828282828288C
:1024D000282828282828282828282828282828287C
:1024E0002828190AFAEBDCD7D1CCD1D1D1D7D7D74C
:1024F000DCDCDCDCDCDCDCDCD7D7D7D7D7D7D7D744
:10250000D7DCDCDCDCDCDCDCDCDCDCDCDCDCDCDC10
:10251000DCDCDCDCDCDCDCE6F5051423282E2E2EEE
:102520002E2E282828232323232323232323232356
:10253000232323232323232323232323232323236B
:10254000232323232323232323232323190AFAEBDF
:10255000E1D7D1D1D1D7D7D7DCDCDCDCDCDCDCDCEB
:10256000DCDCDCDCDCDCDCDCDCDCDCDCDCDCDCDCAB
:10257000DCDCDCDCDCDCDCDCDCDCDCDCDCDCDCDC9B
:10258000DCE6F505141E282E2E2E282828232323CA
:10259000232323232323232323232323232323230B
:1025A00023232323232323232323232323232323FB
:1025B000232323232323190AFAEBE1DCD7D7D7D728
:1025C000DCDCDCDCE1E1E1E1E1E1E1E1DCDCDCDC23
:1025D000DCDCDCDCDCE1E1E1E1E1E1E1E1E1DCDC0E
:1025E000DCDCDCDCDCDCDCE1E1E1E1EBFA05141E47
:1025F00023282828282323231E1E1E1E1E1E1E1EBF
:102600001E1E1E1E1E1E1E1E1E1E1E1E1E1E1E1EEA
:102610001E1E1E1E1E1E1E1E1E1E1E1E1E1E1E1EDA
:102620001405FAF0E6DCD7D7D7D7DCDCDCE1E1E152
:10263000E1E1E1E1E1E1E1E1E1E1E1E1E1E1E1E18A
:10264000E1E1E1E1E1E1E1E1E1E1E1E1E1E1E1E17A
:10265000E1E1E1E1E1EBFA050F192323281E19144A
:102660000F050000FAF5F5F5FAFA0000000505007F
:102670000000FAFAF5F5F5FA00000005050A0A056A
:10268000050000F5F5F0F5F5FA0005050F0A0A0A50
:102690000A050500FAFAF5F5F5F5F5FA0000FAFA7B
:1026A000FAFA0000FAFAFAFA00000000FAFAF5FA6B
:1026B000F5FAFAFA0005050A0A0A05000000FAF51B
:1026C000F5F0F5F5FAFAFAFA000000000000000053
:1026D000FA00000000050500000000FAF5F0F5FA28
:1026E0000000FAF5F0F0EBEBEBEBF0F5F5FAFAFAA7
:1026F000F5F5F5FA0000000000050A0F0A0A0A05C0
:102700000505050500000000000A0A0A0A0505057E
:102710000A0A0A0F1414140F0A0A050000FAF5F544
:10272000FA000005050A0F0F0A050505050000005F
:10273000FAF5F0F0F0F0FA00050A0A0F0F0F0F0F8C
:102740000500FAF5F5F5FA00000000FA00000505AD
:10275000050500FAF5F5F5FAFAFA0000000000FAAE
:10276000F5F5F0EBEBEBEBEBF0F5FA000000000019
:1027700000000000000005050A0F0F0F0A05000009
:102780000000000000000000000000000000000049
:102790000000000000000000000000FA000000003F
:1027A000000000000000000000FAFAFAFA0000053C
:1027B0000A0F0F1414140F0A05050000000000FA98
:1027C000F5F5F5F5FA00050A0A0A050505050500FF
:1027D00000FAF5F5F5FAF5F5F5F5F5F5F5FA000079
:1027E00000000000000000000005000000000000E4
:1027F00000FAFAFAF5F5F5F5FA0000000000050A0E
:102800000A0F0A0A0A05050505050000000005056E
:10281000050500FAFAFA00000000000000000000C0
:1028200000FAF5F5F0F0F0F5FA0000000000000005
:10283000FAFA00000000000000000000000000059F
:1028400000050000000000000000FAFAFA00000095
:10285000000005050A050000FAF5F0F0F0F5FAFAB7
:102860000000050505050000FAF5F0F0F5F500009B
:102870000005000000000000000000000000000053
:10288000FAFAFAF5F5F5F5F5FAFA0000000000009D
:10289000FAFAFAFAFAFA0000000000050505050048
:1028A0000500000005050A0A0A0A0A0A05050000D3
:1028B000FAF5FA0000000000000505050505050011
:1028C000FAF5F5FAFA00000000050505000000FA27
:1028D000F5F5F5F0F0F5F5FA000005050505000041
:1028E00000000000050505050500000000000000CF
:1028F00000000000050000000000000000000000D3
:1029000000000000000000000000000000000000C7
:10291000050505050505050000000000050A0A0F6C
:102920000F0F0A0505000000FAF5F5F0F5F5FAFAC3
:10293000FA0000050505050505050000000000007A
:102940000000050505000000000000FAFAFAF5F5A0
:10295000FA00000000FAFAF5FAFAFAFAFAF5FAFAC9
:10296000000000FA00000000000005050A0A0A0540
:1029700000000000000000FAFA0000000000000063
:102980000000FA000000000000000000000000FA53
:10299000FAFA00000000000000000000FAFAFAFA5B
:1029A00000000005050505050505050505000000F5
:1029B000FAFAFAFAFAFAFA00000000000000050537
:1029C0000500000000000000000000FA0000000503
:1029D00005000000000000000000FAFAFAFAFA0010
:1029E0000000000000000000000000FA00000000ED
:1029F0000505050A0A0A0A0A0A0505000000000082
:102A00000000FAFAFA0000000000050505050505BA
:102A10000A0505050000FAFAF5F5FAFA00000005C6
:102A200005050505000000FAFAFAFAFAFA000000B6
:102A30000000000000000000FAFAF5F5FAFAFAFAD0
:102A4000FAFAFA00FAFAFAFAFAFAFAFAFAFA0000D4
:102A50000000000000000000000000000000000571
:102A6000050505050505050505050A050500000020
:102A7000000000000005050505050505050000002E
:102A8000000000000005050A0A0A05050A0A0A05F1
:102A90000000050505050505000000000000000513
:102AA0000000000000000000000000000000000026
:102AB0000000000000000000000000000505050502
:102AC00005050505050000FAFAF5F5F5F5FA00002B
:102AD0000505050A0A05050000FAFAFAFA000000E1
:102AE00000000000000000000000FAFAFAFAFAFA0A
:102AF000FAFAFAFAFAFAFAFAFAFAFA000000000018
:102B000000000000000000050505050505000000A7
:102B10000000000000000005050505050505000092
:102B200000000000000000000000000000000000A5
:102B30000000000005050005000000000000000086
:102B40000000000000000000000000000000000085
:102B5000000000FAFAFAFAFA000000000000000093
:102B6000000000000000000000000000000005055B
:102B70000505050000000000FAFAFAFAFAFA00006A
:102B80000000050505000000000000000000000036
:102B90000000000000000000000C1925313C4751E6
:102BA0005A626A70757A7D7E7F7E7D7A75706A6200
:102BB0005A51473C3125190C0004080C1014181CFC
:102BC0002024282C3034383C4044484C5054585C25
:102BD0006064686C7074787C7F7F7F7F7F7F7F7F8D
:102BE0007F7F7F7F7F7F7F7F7F7F7F7F7F7F7F7FF5
:102BF0007F7F7F7F7F7F7F7FC22211241FBECFEF29
:102C0000D8E0DEBFCDBF11E0A0E0B1E0E4EFFAE430
:102C100002C005900D92A230B107D9F728E0A2E0DA
:102C2000B1E001C01D92A632B207E1F70E94D719A8
:102C30000C946D250C9400003FB7F89480912A0401
:102C400090912B04A0912C04B0912D0426B5A89B43
:102C500005C02F3F19F00196A11DB11D3FBFBA2F2E
:102C6000A92F982F8827820F911DA11DB11DBC018E
:102C7000CD0142E0660F771F881F991F4A95D1F753
:102C800008954F925F926F927F928F929F92AF9230
:102C9000BF92CF92DF92EF92FF921F93CF93DF9379
:102CA0006B017C010E94AB23162F70E080E090E066
:102CB0000E94DC239B01AC01C701B6010E94C52222
:102CC0006B017C0120E030E040E05FE30E9468247B
:102CD00018166CF420E030E040E05FE3C701B60175
:102CE0000E94C5226B017C01C1E0D0E002C0C0E0BF
:102CF000D0E0A7019601C701B6010E946D242B0107
:102D00003C0128E23DE846EA51E40E94C6224B011C
:102D10005C012DE63CE44CE65DE3C301B2010E9498
:102D20006D2426EA33EE46EE50E40E94C6229B0153
:102D3000AC01C701B6010E946D246B017C0181E0EA
:102D400090E002C0880F991F1A95E2F7BC01990F15
:102D5000880B990B0E94DC232B013C01A7019601F3
:102D6000C501B4010E94C6229B01AC01C301B2019E
:102D70000E946D242B013C01A7019601C501B401FD
:102D80000E94C5229B01AC01C301B2010E94322303
:102D9000CD2B31F023EF34E045EB5FE30E946D244F
:102DA000DF91CF911F91FF90EF90DF90CF90BF9078
:102DB000AF909F908F907F906F905F904F9008950D
:102DC0008F929F92AF92BF92CF92DF92EF92FF923B
:102DD000CF93DF93EC016B01E12CF12C41FF28C074
:102DE00080E09EE18C1B9D0BBC0180E090E00E9486
:102DF000DA2320E030E040E454E40E9432230E94D1
:102E000041164B015C01C701B6010E94DA2320E0A4
:102E100030E040E052E40E946D2420E030E84BEBCB
:102E200056E40E943223A50194010E946D2429C01A
:102E3000C701B6010E94DA2320E030E040E854E404
:102E40000E946D242AE33CE748ED5AE40E946D2479
:102E500020E030E84BEB56E40E9432236B017C010A
:102E6000BE0180E090E00E94DA2320E03CEA42E0EC
:102E700056E40E946D249B01AC01C701B6010E947B
:102E8000322320E030E040E05FE30E94C6220E944F
:102E9000AB23CB01DF91CF91FF90EF90DF90CF90EC
:102EA000BF90AF909F908F900895962F682F70E0FD
:102EB00091FF0CC088E790E09C01261B370BC901ED
:102EC00026E0880F991F2A95E1F70895072E000C38
:102ED000880B990B0E94DC2320E030E040E451E4B1
:102EE0000E9432230E9441169B01AC0160E070E019
:102EF00086ED96E40E94322320E030E040E05FE37C
:102F00000E94C6220E94AB23CB010895CF93DF938A
:102F1000EC01DB01E881F981259134918C91082E37
:102F200002C0369527950A94E2F7480F4C93483033
:102F300040F0888199810196998388838C9188508B
:102F40008C93822FDF91CF9108957F928F929F92E1
:102F5000AF92BF92CF92DF92EF92FF920F931F93A7
:102F6000CF93DF93EC016B015A0149018CA183706F
:102F7000813021F020F1823069F0C6C041E0BE010D
:102F8000605E7F4FCE014E960E94861780FD17C06F
:102F9000712C4AC042E0BE01605E7F4FCE014E966A
:102FA0000E9486178370823031F0833031F0813097
:102FB00009F0AAC004C07FA41AC078A818C08CA1C8
:102FC00082FD02C044E001C048E0BE01605E7F4F68
:102FD000CE014E960E9486179CA192FD02C09FE0F2
:102FE00001C09FEF792E78228FA588AB7FA6872D11
:102FF00081718031A1F08131A1F08130A9F447E0E5
:10300000BE01605E7F4FCE014E960E9486178F777D
:10301000F60180838DA18EA380818DA305C08DA133
:1030200001C08EA1F6018083872D82728032A1F0CB
:103030008232A1F08230A9F445E0BE01605E7F4F8C
:10304000CE014E960E9486178F71F50180838FA165
:1030500088A780818FA305C08FA101C088A5F50135
:103060008083872D84748034A1F08434A1F084306F
:10307000A9F446E0BE01605E7F4FCE014E960E94ED
:1030800086178F73F401808389A58AA7808189A719
:1030900005C089A501C08AA5F4018083872D8878A1
:1030A000803831F1883849F1883081F55E01F0E2ED
:1030B000AF0EB11C6E018EE1C80ED11C44E0B5010B
:1030C000C6010E9486178F70F801808348E0B50121
:1030D000C6010E948617F70180838BA58CA7F80193
:1030E00080818BA78DA58EA7F70180818DA70EC04B
:1030F0008BA5F80180838DA504C08CA5F801808381
:103100008EA5F701808302C0712C71CFDF91CF9122
:103110001F910F91FF90EF90DF90CF90BF90AF90F5
:103120009F908F907F9008952F923F924F925F9241
:103130006F927F928F929F92AF92BF92CF92DF92C7
:10314000EF92FF920F931F93CF93DF93CDB7DEB72C
:1031500029970FB6F894DEBF0FBECDBF80931D0830
:1031600060931F081092240810922508E82FF0E0C1
:10317000CF014396E0912E04F0912F04E80FF91F40
:10318000E4918091360490E00196880F991FE89FA2
:103190009001E99F300D11242090300430903104CB
:1031A000220E331EF101849180931E0837E5A32E71
:1031B00034E0B32E49E5C42E44E0D42E5DE5452E1F
:1031C00054E0552E812C912C862F90E0998788878A
:1031D0008091350490E08816990608F053C0F601F6
:1031E000B097FF83EE83FFEF8F1A9F0AF401EE0F73
:1031F000FF1FE20DF31D8591949120912E043091D3
:103200002F04820F931FF50191838083F6011082B2
:1032100043E0B601C5010E9486178770F2018083E2
:10322000F50180819181F601928381838081F20191
:1032300031978083612C712CE885F9856E167F06A5
:10324000B8F4CE0101967C018E010E5F1F4F9E01E6
:103250002D5F3F4FAE014C5F5F4FBE016B5F7F4FF5
:103260008E819F810E94A5179FEF691A790AE4CF8A
:10327000FEE3AF0EB11C8EE3C80ED11C9EE3490ED7
:10328000511CA6CF29960FB6F894DEBF0FBECDBF56
:10329000DF91CF911F910F91FF90EF90DF90CF9032
:1032A000BF90AF909F908F907F906F905F904F9066
:1032B0003F902F9008951F920F920FB60F921124F6
:1032C0002F933F938F939F93AF93BF938091260447
:1032D00090912704A0912804B091290430912504ED
:1032E00023E0230F2D3720F40196A11DB11D05C049
:1032F00026E8230F0296A11DB11D2093250480937B
:10330000260490932704A0932804B0932904809165
:103310002A0490912B04A0912C04B0912D040196C5
:10332000A11DB11D80932A0490932B04A0932C041B
:10333000B0932D04BF91AF919F918F913F912F91A9
:103340000F900FBE0F901F9018951F920F920FB6FF
:103350000F9211248F939F93EF93FF93E091230497
:10336000F0912404808111929081009000010192DB
:1033700095958795959541F0990F990B90959BB9E7
:1033800005C0E2E0F1E006C087958BB9E23284E047
:10339000F807B9F3F0932404E0932304FF91EF912D
:1033A0009F918F910F900FBE0F901F901895CF9304
:1033B000DF93CDB7DEB7CC54D1090FB6F894DEBF9A
:1033C0000FBECDBF789484B5826084BD84B5816022
:1033D00084BD85B5826085BD85B5816085BD8091E0
:1033E0006E00816080936E00109281008091810058
:1033F0008260809381008091810081608093810050
:10340000809180008160809380008091B100846011
:103410008093B1008091B00081608093B000809172
:103420007A00846080937A0080917A008260809331
:103430007A0080917A00816080937A0080917A008E
:10344000806880937A001092C10086E990E09093A2
:103450002F0480932E04E6EAF0E0E491E093360432
:103460002E2FE13108F020E120933504ECE9F0E063
:10347000459154915093380440933704E4EAF0E0C6
:103480008591949146968C7F8A569F4F90933304F2
:1034900080933204E8EAF0E0E49130E1E39F800DAC
:1034A000911D1124909331048093300440FD02C09B
:1034B00082E001C084E08093340480EE93E0E9E38D
:1034C000F4E0DF01AC011D9241505040E1F7AFE460
:1034D000B4E080E090E0E22FF0E024E08E179F0758
:1034E00020F42C930196DE96F9CF60E080E00E94F4
:1034F000941820912E0430912F04F9013C961491D8
:10350000109321083196249152E3259FF001112454
:103510009F01FF0F440B550B60EC76EC8DE290E0C1
:103520000E94262530931A0820931908EFEFE10F27
:10353000E09320081092220881E0809323081092E3
:103540001C0810921B088FEF8AB98FE384B987B9E2
:10355000E2E0F1E080E092E081939193A4E0E23236
:10356000FA07D1F782E091E090932404809323043A
:1035700081E0809322041092800089E08093810092
:103580001092820082E080936F008BE992E090932A
:103590008900809388000E941C164B015C01A8EBF7
:1035A000CA2EABE0DA2EE12CF12C0E941C16DC01B5
:1035B000CB0188199909AA09BB09883E9340A10546
:1035C000B10558F0B1E0CB1AD108E108F108E8EEF6
:1035D0008E0EE3E09E1EA11CB11CC114D104E104B7
:1035E000F10419F79E012F5D3F4F3FAB2EABF894CE
:1035F00020912304309124047894909122049923FB
:1036000021F02259324028F001C12259324008F4F9
:10361000FDC020E931E0929FD001939FB00D1124AD
:103620009D012E5F3E4F2B963FAF2EAF2B9781E033
:1036300089278093220448EC50E05DAF4CAF209086
:10364000190830901A0880911B0890911C08D1012C
:10365000A81BB90B6CAD7DADA617B70708F4BD016B
:10366000CB01880F991F2B96AEACBFAC2B97A80E41
:10367000B91EBBAEAAAE809135042EE3829FC00175
:103680001124AC01475C5B4F59AF48AF80912E04C9
:1036900090912F0424969FAF8EAF249706E514E0F7
:1036A00089E394E0DC011696ED90FC901797E11405
:1036B000F10409F484C0CD90DC90F6014591549159
:1036C0002496AEACBFAC2497A40EB51E2D96BFAE0B
:1036D000AEAE2D97F601369625913491F6013896C7
:1036E00085909490F8017397C080D801DC90CD9CB0
:1036F000D0011124FC014280538064807580DD2458
:10370000C72CB62CA52C2296ACAEBDAECEAEDFAE8D
:103710002297F5012D96CEACDFAC2D97EC0DFD1D5B
:10372000C20ED31EDFAECEAEC12C4B2F2EAD3FADA1
:103730005C2D712C2B96AEADBFAD2B97AAACBBAC5C
:10374000AF93BF9354915403512D550F550B0C90CB
:10375000010C0D920C90051E0D924E0CEF1DF71DE5
:10376000E217F30720F4AA15BB0561F707C0E819B3
:10377000F909082C0928B9F7EE24FF241124BF9178
:10378000AF912D96AEACBFAC2D97EA19FB099F0106
:1037900040E050E0542F432F322F222759016A0175
:1037A000A40CB11CC11CD11CDC011296AD92BD92BF
:1037B000CD92DC9215971796FC92EE921697CE96C4
:1037C000025C1F4FA8ACB9AC8A159B0509F06ACF03
:1037D000CCACDDACC61AD70ADDAECCAE80911B08EE
:1037E00090911C08680F791F70931C0860931B0848
:1037F0006215730599F0AAACBBAC2B96BFAEAEAE0A
:103800002B97CCACDDACCD2809F019CF80E090E04F
:10381000892B09F4ECCE0E940000E9CE80912008AB
:103820008F5F80932008909121082091350489139F
:10383000DAC380912308815019F080932308BDC317
:1038400081E0809323088EE294E0FE01B196BE01F0
:103850006F5F7F4FCE963E2FBEA93B1B321788F479
:10386000AC0145515109DA014D915C91DB014D9359
:103870005D93BD01AC0143515109DA013C91319393
:10388000E9CF812C512C412C22242A94322C13E094
:10389000612E712C80913504881608F044C3992458
:1038A0009A949DAA9CAA9BAA9AAAC82CD12CEEE312
:1038B0008E9E500111249E012F5C3F4F79018E0195
:1038C0000E5C1F4F2E5F3F4FAE014C5C5F4FBE0141
:1038D0006B5C7F4FC501875C9B4F0E94A5178DA92C
:1038E000883731F4F501E25DFB4F128A118A0AC074
:1038F000893749F4F501E25DFB4F808D8068808F48
:1039000035A224A29DAA9CA99F3F21F1E0913204F7
:10391000F0913304AF01A0E19A9F400D511D112495
:103920002EE32C9DD0012D9DB00D1124A25DBB4F27
:103930001C965C934E931B97FA013596E49155962D
:10394000EC935597FA013A968591949154969C93ED
:103950008E9353978BA98F3FA9F090E02EE32C9D77
:10396000F0012D9DF00D1124E25DFB4F9C0174E0F0
:10397000359527957A95E1F7880F991F880F991F3C
:10398000822B858B8EE38C9DF0018D9DF00D112493
:10399000E25DFB4F8FEF818F3AA93F3F09F482C26E
:1039A000832F90E08E30910508F07CC2FC01EC5C26
:1039B000FF4F29A90C944525213218F420932108A2
:1039C00071C2B2E32B9F90011124032E000C440B13
:1039D000550B60EC76EC8DE290E00E94262530934A
:1039E0001A08209319085EC2FF24FA94F20EF0928E
:1039F0001D0880911E0880931F0854C280911E08E4
:103A000080931F08522E4EC28EE38C9DF0018D9D37
:103A1000F00D1124E25DFB4F87E0818F228F42C2BF
:103A20008EE38C9DF0018D9DF00D1124E25DFB4F26
:103A3000222311F0228F02C0828D89AB89A9803E9A
:103A400058F19EE39C9DF0019D9DF00D1124E25DD7
:103A5000FB4F46895789282F30E0803F40F0C9014D
:103A6000805F9109880F991F880F991F03C0C901B2
:103A7000805E9109840F951F8130EBE69E0708F464
:103A800045C08EE38C9DF0018D9DF00D1124E25D0B
:103A9000FB4F80E09BE64DC08EE38C9DF0018D9D39
:103AA000F00D1124E25DFB4F84E05CC18EE38C9D40
:103AB000F0018D9DF00D1124E25DFB4F222311F0EA
:103AC000228F02C0828D89AB49A98EE38C9DF001C3
:103AD0008D9DF00D1124E25DFB4F403E08F44BC07C
:103AE00026893789842F90E0403F38F0805F910924
:103AF000880F991F880F991F02C0805E9109590194
:103B0000A81AB90AC5018C3191054CF02EE32C9D01
:103B1000F0012D9DF00D1124E25DFB4F0AC08EE3F4
:103B20008C9DF0018D9DF00D1124E25DFB4F8CE129
:103B300090E0978B868B8EE38C9D80018D9D100D80
:103B40001124025D1B4FD80151968D919C91529783
:103B5000892B09F4A7C153966D917C91549740919C
:103B6000370456968D919C9157970E94E016F80164
:103B7000928B818B97C185E0F5C0222349F08EE3BB
:103B80008C9DF0018D9DF00D1124E25DFB4F238F84
:103B90008DA98F3F71F0609137040E9455172EE375
:103BA0002C9DF0012D9DF00D1124E25DFB4F958FB2
:103BB000848F8EE38C9DF0018D9DF00D1124E25DCC
:103BC000FB4F86E0818F8FEF8DAB6CC1822F8F70A2
:103BD00049F08EE38C9DF0018D9DF00D1124E25D86
:103BE000FB4F268F8EE38C9DF0018D9DF00D1124EF
:103BF000E25DFB4F968D99AB95FF26C0292F2F7064
:103C000044E0249F900111248589482F50E090734F
:103C1000903219F4319521953109CA01820F931F11
:103C200097FD07C08F3F910529F024F08FEF90E0BA
:103C300001C080E09EE39C9DF0019D9DF00D11244C
:103C4000E25DFB4F858B2EC1318F2CC1822F8F708F
:103C500061F09EE39C9DF0019D9DF00D1124E25DBD
:103C6000FB4F880F880F880F80A3822F807F79F009
:103C70008EE38C9DF0018D9DF00D1124E25DFB4FD4
:103C800030E044E0359527954A95E1F7278F8EE39C
:103C90008C9DF0018D9DF00D1124E25DFB4F21A163
:103CA00022FF56C0237012A1E12F012E000CFF0B42
:103CB00030E095E0220F331F9A95E1F717FF0AC015
:103CC000C9018E1B9F0BFC01E854F44DE4912E2F8B
:103CD000219505C0E20FF31FE856F44D24913EE311
:103CE0003C9DC0013D9D900D1124DC01A25DBB4FA8
:103CF0007D0151968D919C915297892BD1F0909690
:103D00003C91909753966D917C9154972303900129
:103D10001124232F330F330B56968D919C91579777
:103D200040913704820F931F0E94E016F701928B97
:103D3000818B8EE38C9DF0018D9DF00D1124E25D51
:103D4000FB4F878D180F10320CF0105412A301C0D6
:103D500012A28EE38C9DF0018D9DF00D1124E25D89
:103D6000FB4F88E0818F9EC08EE38C9DF0018D9D7E
:103D7000F00D1124E25DFB4F158616861786108A1A
:103D8000822F8F7083A38BE0818F228FE85BFF4FA0
:103D900081E0808387C0F22E8EE38C9DF0018D9DA3
:103DA000F00D1124E25DFB4F822F90E0A0E0B0E027
:103DB000DC019927882785879687A787B08B73C0F2
:103DC000822F90E014E0959587951A95E1F782305F
:103DD0009105E9F08330910509F1019709F062C07E
:103DE000822F8370833039F480911B0890911C08D6
:103DF000B3010E94FE249EE39C9DF0019D9DF00D69
:103E00001124E25DFB4F2470822B81A34BC02F70E5
:103E1000FF24F394F20EF092230844C02F7029ABD4
:103E2000222391F080912408882321F081508093EF
:103E3000240802C02093240880912408F12C8823B0
:103E400091F1442443942FC080911F08809325084A
:103E50008AE694E0AE014F5D5F4FBE016F5F7F4F1A
:103E60002091350430E0FA01AEA8BFA8EA19FB0999
:103E7000E217F307B8F4DB012D913D91BD01FC0180
:103E8000709731832083FA012191AF01FC013E97A5
:103E900020833296DC012CE001900D922A95E1F707
:103EA000CE96DECFF12CEDA8BB24BA94EB14C9F169
:103EB00040913704642F8E2D27964FAF27970E948D
:103EC00055172EE32C9D80012D9D100D1124025DB0
:103ED0001B4FD80157969C938E9356975896EC9209
:103EE000CF2CD12CE12CF12C7601DD24CC24F8014F
:103EF000C586D686E786F08A6389748927964FAD92
:103F000027970E94E016D80152969C938E93519762
:103F1000F801E85BFF4F81E08083F80116A28FEF84
:103F200087A38394B7CC442039F189E594E040E03D
:103F300050E06CE02091350430E042175307B8F4AC
:103F4000DC0111962D913C911297FC01329731833F
:103F50002083FC012381208315967196262F0190E2
:103F60000D922A95E1F74F5F5F4FCE96E3CF809198
:103F70002508815080931F0880911F0891E0980FB9
:103F800090931F0890911E08891317C080911D08F7
:103F90008F5F80931D08E0912E04F0912F043E96D0
:103FA0002591349190E08217930711F410921D0827
:103FB000652D80911D080E94941810922008609031
:103FC0003504A0902E04B0902F04B9AEA8AEF6E44C
:103FD0008F2EF4E09F2EA4E5AA2EA4E0BA2E05E5CC
:103FE00014E0C12C40C28091220890E0019663E069
:103FF00070E00E94122580932208622E712CD090CE
:1040000037049C01220F331F220F331F3FAF2EAF07
:10401000C0903404AC2CB12C2496BFAEAEAE249725
:104020000EE214E068E4A62E64E0B62E73E4472E98
:1040300074E0572EE1E5EE2EE4E0FE2E212C312C2B
:104040002614370408F0BBCFF7013A97208128AF38
:10405000822F90E0FC013397E930F10508F074C13C
:10406000EE5BFF4F0C944525D5018C9190E00EAC92
:1040700002C0959587950A94E2F78F70F7013B97F8
:1040800090819F776D2D890F0E945517F8016389E4
:1040900074894D2D0E94E016D80152969C938E9300
:1040A000519752C1F5012081D80156968D919C916E
:1040B00057972C9D8019910911248C3191058CF40E
:1040C0002CE130E015C0D5012C91F8018689978943
:1040D0002C9D800D911D11248130FBE69F0730F44B
:1040E000D80157969C938E93569705C020E03BE6E7
:1040F000F801378B268BD80153966D917C9154979C
:104100004D2D56968D919C9157970E94E016F8017F
:10411000928B818B19C1D80156962D913C9157975E
:104120005C964D915C915D97F7013897808190E0A6
:10413000241735071CF09195819591092496EEADD1
:10414000FFAD24978E9FB0018F9F700D9E9F700DC5
:104150001124260F371F91E0161617060CF090E079
:1041600081E0241735070CF080E0981302C0C901E4
:1041700001C0CA01D80156968C93569757969C93C6
:10418000579753966D917C9154974D2D0E94E01650
:10419000F801928B818B28AD293009F0D5C0F70149
:1041A00035979081292F2F7044E0249F900111248E
:1041B000D2018C91482F50E0907319F431952195DC
:1041C0003109CA01820F931F97FD07C08F3F9105E8
:1041D00029F024F08FEF90E001C080E0F2018083AD
:1041E000B3C0F701329720812370D7018E914D0122
:1041F000E82F082E000CFF0B30E087FF12C040E2D2
:1042000050E04E1B5F0BFA0145E0220F331F4A9529
:10421000E1F7E20FF31FE856F44DE4912E2F2195BC
:104220000AC095E0220F331F9A95E1F7E20FF31FC2
:10423000E856F44D2491F70133973081D801539615
:104240006D917C9154972303F0011124EF2FFF0F00
:10425000FF0B56968D919C9157974D2D8E0F9F1F5A
:104260000E94E016F801928B818BD4019C91F7019A
:1042700034978081890F803214F48C9303C080546A
:10428000F401808328AD2A3009F05EC088CFD701C1
:10429000EC91E150EC93E11157C0D5012C91822FA4
:1042A0008F70D7018C93D2016C91862F90E030E013
:1042B000B4E035952795BA95E1F727303105C9F077
:1042C00054F426303105C9F4880F991F63E070E07B
:1042D0000E94122526C02E30310539F02F303105CD
:1042E00061F4BC01660F771F1CC0B3E06B9FC00177
:1042F0001124BC017595679514C0A9014770552715
:1043000062E070E002C0660F771F4A95E2F77727F8
:1043100023FD03C0719561957109680F791F77FDC1
:1043200008C0CB016F3F710519F014F08FEF90E0DA
:10433000E82FD201EC93F801158616861786108AAD
:10434000E85BFF4F21E020833FEF231A330A025C32
:104350001F4F4EE3A40EB11C5EE3450E511C8EE3CD
:10436000E80EF11C6DCEF8017C97E080F180F7013A
:104370003C9685919491009709F4BCC0A8ADB9AD65
:104380008A0F9B1FF8017081472F440F550B4B5F1D
:104390005F4F480F591FFA0132963491D5012C9185
:1043A0002F5F2C93321708F461C0FA018491319683
:1043B00074903296D490482F50E0D5016C9170E003
:1043C000641B750B072E000C880B990B25963FAFCD
:1043D000259727964FAF279726965FAF26970E947F
:1043E000DC231B012C0125963FAD2597632F70E040
:1043F00027964FAD279726965FAD2697FB01E41BC6
:10440000F50BBF01FF0F880B990B0E94DC239B016A
:10441000AC01C201B1010E9432231B012C016D2DA0
:1044200070E0FB01E719F109BF01FF0F880B990B41
:104430000E94DC239B01AC01C201B1010E946D24EA
:104440000E94A423670DF401808187FD55C0D80127
:1044500011966C93C394BEE38B0E911CEEE3AE0EEB
:10446000B11C025C1F4FC6107ECF63C0FC012491BB
:1044700021503396E491A22FE21708F4AE2FFC01ED
:104480003496E491E21708F42E2FF401408147FDA1
:104490000BC0FC01319644913196E4914A1708F41F
:1044A000A42FE21708F42E2FE1E0E70F6E2F0E2E57
:1044B000000C770B422F50E06417750711F0D801FC
:1044C0000FC04A2F50E0A21708F0A150F801A083B6
:1044D000FA01EE0FFF1F3596E80FF91FE491D501A1
:1044E000EC93F8014081440F550B4B5F5F4F480F31
:1044F000591F5BCF6FEFA7CFF7013E9625913491FF
:10450000D4011C968D919C911D97A92FBB276A9F62
:10451000A0016B9F500D1124652F2817390718F43F
:10452000821B930B02C080E090E0F40195878487A2
:104530008ECFE6E7F4E020E030E080E090E0D12CA0
:1045400041E050E02C153D0588F46081662351F070
:10455000BA01022E02C0660F771F0A94E2F7862B7B
:10456000972B10822F5F3F4FFE96ECCF85B926E048
:10457000969587952A95E1F788B910921C081092B4
:104580001B0839C910926F0008955058BB27AA27FD
:104590000E94DD220C942E240E94202438F00E94D8
:1045A000272420F039F49F3F19F426F40C941D249D
:1045B0000EF4E095E7FB0C941724E92F0E943F24AA
:1045C00058F3BA17620773078407950720F079F448
:1045D000A6F50C9461240EF4E0950B2EBA2FA02DB5
:1045E0000B01B90190010C01CA01A0011124FF27A0
:1045F000591B99F0593F50F4503E68F11A16F0409B
:10460000A22F232F342F4427585FF3CF4695379599
:104610002795A795F0405395C9F77EF41F16BA0B5E
:10462000620B730B840BBAF09150A1F0FF0FBB1F0C
:10463000661F771F881FC2F70EC0BA0F621F731F55
:10464000841F48F4879577956795B795F7959E3FB2
:1046500008F0B0CF9395880F08F09927EE0F979543
:10466000879508950E9446230C942E240E942724A7
:1046700058F00E94202440F029F45F3F29F00C9468
:10468000172451110C9462240C941D240E943F2481
:1046900068F39923B1F3552391F3951B550BBB2771
:1046A000AA2762177307840738F09F5F5F4F220FB6
:1046B000331F441FAA1FA9F335D00E2E3AF0E0E8AD
:1046C00032D091505040E695001CCAF72BD0FE2FF7
:1046D00029D0660F771F881FBB1F2617370748078B
:1046E000AB07B0E809F0BB0B802DBF01FF27935843
:1046F0005F4F3AF09E3F510578F00C9417240C94CC
:1047000062245F3FE4F3983ED4F3869577956795EE
:10471000B795F7959F5FC9F7880F911D9695879577
:1047200097F90895E1E0660F771F881FBB1F621796
:1047300073078407BA0720F0621B730B840BBA0B54
:10474000EE1F88F7E09508950E94AB236894B1119D
:104750000C94622408950E94472488F09F5798F093
:10476000B92F9927B751B0F0E1F0660F771F881F76
:10477000991F1AF0BA95C9F714C0B13091F00E9490
:104780006124B1E008950C946124672F782F882765
:10479000B85F39F0B93FCCF3869577956795B395B7
:1047A000D9F73EF490958095709561957F4F8F4F26
:1047B0009F4F0895E89409C097FB3EF4909580952B
:1047C000709561957F4F8F4F9F4F9923A9F0F92FD7
:1047D00096E9BB279395F695879577956795B79555
:1047E000F111F8CFFAF4BB0F11F460FF1BC06F5F3B
:1047F0007F4F8F4F9F4F16C0882311F096E911C04D
:10480000772321F09EE8872F762F05C0662371F06D
:1048100096E8862F70E060E02AF09A95660F771F81
:10482000881FDAF7880F9695879597F9089597F975
:104830009F6780E870E060E008959FEF80EC089546
:1048400000240A941616170618060906089500246F
:104850000A9412161306140605060895092E0394E9
:10486000000C11F4882352F0BB0F40F4BF2B11F45D
:1048700060FF04C06F5F7F4F8F4F9F4F089557FDBC
:104880009058440F551F59F05F3F71F04795880FBE
:1048900097FB991F61F09F3F79F087950895121655
:1048A00013061406551FF2CF4695F1DF08C0161601
:1048B00017061806991FF1CF8695710561050894B2
:1048C0000895E894BB2766277727CB0197F90895C9
:1048D0000E94DA2408F48FEF08950E9480240C943B
:1048E0002E240E94202438F00E94272420F09523B3
:1048F00011F00C9417240C941D2411240C946224A0
:104900000E943F2470F3959FC1F3950F50E0551F0F
:10491000629FF001729FBB27F00DB11D639FAA2714
:10492000F00DB11DAA1F649F6627B00DA11D661F63
:10493000829F2227B00DA11D621F739FB00DA11D84
:10494000621F839FA00D611D221F749F3327A00D3E
:10495000611D231F849F600D211D822F762F6A2FDA
:1049600011249F5750409AF0F1F088234AF0EE0F3F
:10497000FF1FBB1F661F771F881F91505040A9F76C
:104980009E3F510580F00C9417240C9462245F3FE5
:10499000E4F3983ED4F3869577956795B795F795A8
:1049A000E7959F5FC1F7FE2B880F911D9695879520
:1049B00097F90895990F0008550FAA0BE0E8FEEF4C
:1049C00016161706E807F907C0F012161306E407D3
:1049D000F50798F0621B730B840B950B39F40A26CC
:1049E00061F0232B242B252B21F408950A2609F4AA
:1049F000A140A6958FEF811D811D0895AA1BBB1BA9
:104A000051E107C0AA1FBB1FA617B70710F0A61BCE
:104A1000B70B881F991F5A95A9F780959095BC01EF
:104A2000CD01089597FB072E16F4009407D077FD6B
:104A300009D00E94FE2407FC05D03EF49095819594
:104A40009F4F0895709561957F4F0895052E97FBB0
:104A50001EF400940E943D2557FD07D00E944B256F
:104A600007FC03D04EF40C943D25509540953095AD
:104A700021953F4F4F4F5F4F0895909580957095CA
:104A800061957F4F8F4F9F4F0895EE0FFF1F059049
:104A9000F491E02D0994A1E21A2EAA1BBB1BFD0183
:104AA0000DC0AA1FBB1FEE1FFF1FA217B307E4070D
:104AB000F50720F0A21BB30BE40BF50B661F771F65
:104AC000881F991F1A9469F7609570958095909545
:104AD0009B01AC01BD01CF01089515E1CCEFD5E1FB
:104AE00004C0FE010E9445252196CD3FD107C9F79C
:044AF000F894FFCF68
:024AF4000200BE
:00000001FF
